:02000000F829DD
:06000600000000000800EC
:10000C000F3083120313FC004730FD00FD0B0C284E
:0A001C00FC0B0C2800000000080097
:0E002600213083120313FD00FD0B1728080084
:1000340083120313F801F9011030FC00710DF80D5F
:10004400F90D7408F8027508031C750FF9020318FA
:1000540032287408F80775080318750FF907031098
:0A006400F00DF10DFC0B2028080040
:10006E0083120313C01B3D2886113E288615401BA4
:10007E004228061143280615C01A4728861048281C
:10008E008614401A4C2806104D2806143118512893
:10009E00061652280612861603208612C0195928F3
:1000AE0086115A28861540195E2806115F280615F6
:1000BE00C018632886106428861440186828061015
:1000CE006928061431186D2806166E280612861633
:1000DE0003208612311C752806207628132008006E
:0E00EE008312031330088A002F0882000800D6
:1000FC008312031331103B08C00037203114080061
:10010C0083120313BE0105303E02031894283E08E7
:10011C003D07840020308000BE0A89283E083D0738
:10012C0084008001BE033E083D07BF000A30F40086
:10013C00F5013B08F0003C08F1001A207808F000AB
:10014C007908F1003030F0073F0884007008800017
:10015C000A30F400F5013B08F0003C08F1001A20CD
:10016C007008BB007108BC0000307106031DC0286C
:10017C0000307006031DC328C528BE03992808004B
:10018C000E3083120313FD00FD0BCA28000008007B
:10019C00C330831203139F05C0309F003208F00058
:1001AC00F00D7010F00D701070089F042B09F0000A
:1001BC00700883169F059F1783121F14C6209F1467
:1001CC009F1CEA280000E6281F101E08F100F00111
:0C01DC0083161E08F0040030F104080037
:1001E8000629803083120313B2001929C030B200E7
:1001F80019299430B2001929D430B2001929803055
:10020800B2001929831203133208013A0319F52899
:100218003208023A0319FA283208033A0319FD286A
:100228003208043A0319002903293303F00032087D
:10023800F0077008B2007008C00037203110B5010F
:1002480035083407840000080319322935083407B3
:1002580084000008BB007E20B50A24293114080058
:1002680083120313B701B8013208B9003308BA0082
:1002780080303306F00080307002031D45290030BD
:100288003202031853290130B7000030B800320891
:10029800003CB9003308031C013EBA01BA02390810
:1002A800BB003A08BC003408BD0086200630B50003
:1002B8000030B6003608003C031D64293508003CB0
:1002C80003187F2935083407F20001303502F000A1
:1002D8000030031C013E3602F10070083407840028
:1002E8000008F00072088400700880000130B50230
:1002F800031CB6035E2934088400203080003708C8
:10030800380403199D29B501B6013508340784005E
:100318000008203A031D9429B50A0319B60A892949
:100328000130B502031CB6033508340784002D30AC
:040338008000080039
:10033C0083160313861206120610861006118611F8
:10034C0083128612061286110611861006100620DC
:10035C000620062086140614861603208612062014
:10036C008616032086120620861603208612062087
:10037C000610861603208612062086160320861287
:10038C008610861586160320861206208611061402
:10039C008616032086120610861603208612062067
:1003AC008616032086120614861603208612062053
:1003BC00061086160320861286150615861406145A
:0C03CC008616032086120620311408005B
:1003D80077208A110A128000840AAF0A0319B00A2A
:0803E800F003031DEC290800DD
:1003F00050228B0104308316031788000430031346
:100400008500031789019E210C30C0003720013080
:10041000C00037203430FC00F130FD00FD0B0E2A07
:10042000FC0B0E2A000000002030AC000130B200AE
:100430000130B3002C08B400F4200230B200CE200A
:1004400070088312AD007108AE007008B200710828
:10045000B3002C08B40034210130B2000B30B300DB
:100460002C08B400F4200330FC009730FD00FD0B95
:0E047000372AFC0B372A000000001D2A3E2A06
:1004A000203084000C3083120313F0004430AF007E
:0804B0000230B000EC2108004D
:1004880056346F346C3474347334633461346C347C
:0604980065343A34003423
:02049E003034F8
:04400E00F22F000786
:00000001FF
